:020000040000FA
:04000000FEEF17F008
:100F6400C58AC5881200C586D1EC07F01200C58277
:100F7400D1EC07F01200C580D1EC07F01200C58453
:100F8400D1EC07F01200B5EC07F0B2EC07F0C95051
:100F94001200016E01C0C9FFD1EC07F012009EA639
:100FA400D6EF07F0D8EF07F0D1EF07F09E961200C6
:100FB4000F0EC16E1E0E936EF19E8150E009816E7C
:100FC400120094869488280EC66E310EC86EC79C93
:100FD400C78E9E96A1961200016E9EA8F4EF07F0AC
:100FE400F6EF07F0EFEF07F09E9801C0ADFF120097
:100FF4000A6E000E016E095077EC08F0010E016EC6
:101004000A5077EC08F01200C08EC08AC098C096CF
:10101400C090C082C094C292C19AC198C46AC36A83
:10102400C28012000A6EBDEC07F0D00ECBEC07F0C4
:101034000A50CBEC07F00950CBEC07F0C1EC07F0F9
:101044001200948E949CAC9CAC8AAC98AC96AC8404
:10105400AB8EAB9CAB88B896810EAF6E9E989E9A71
:101064001200026EBDEC07F0A00ECBEC07F00250AC
:10107400CBEC07F0B9EC07F0A10ECBEC07F0C5EC14
:1010840007F0036EC1EC07F003501200026EBDECD2
:1010940007F0D00ECBEC07F00250CBEC07F0B9EC24
:1010A40007F0D10ECBEC07F0C5EC07F0036EC1ECF2
:1010B40007F003501200956A9450F80B946E8290D6
:1010C400000E016E020E77EC08F0000E016E380E71
:1010D40077EC08F0000E016E0C0E77EC08F0000EB1
:1010E400016E010E77EC08F01200026E01B07DEF84
:1010F40008F080EF08F0828281EF08F0829202C04B
:1011040083FF82848294958E8280829282848294E8
:1011140083BE8FEF08F091EF08F088EF08F082901B
:10112400959E1200546A5DEC08F0DAEC07F006ECC8
:1011340008F0E3EC07F0F5EC08F023EC08F0000EFF
:1011440033EC08F0FF0AD8A4AAEF08F0ACEF08F0DB
:10115400B1EF08F0000E046E000EB2EC08F01200BD
:10116400076EBDEC07F0A00ECBEC07F00750CBECFC
:1011740007F00450CBEC07F0C1EC07F0050E066E47
:10118400DC0E056E0506D8A00606052806E106282D
:10119400D8A4CFEF08F0D1EF08F0C4EF08F01200A4
:1011A400076E07C003F0D8900336D8900336C250B8
:1011B400C30B0310C26EC282C2B2E3EF08F0E5EFC4
:1011C40008F0DEEF08F0C350C4CF03F0046A03C094
:1011D40004F0036A0310056E0450066E05C001F0A6
:1011E40006C002F01200000E48EC08F00B6E0B5023
:1011F4008009096E000E14EC08F0020E48EC08F0A9
:101204000B6E0B504009096E020E14EC08F0930E9D
:10121400096E070E14EC08F0000E48EC08F00B6E93
:101224000B507F0B096E000E14EC08F012000B50EB
:10123400D96EDA6A09C001F00AC002F0000E046E29
:101244000A0E036E65EC0BF00150300FDF6E0B508D
:10125400D96EDA6A010ED92609C001F00AC002F07B
:10126400000E046E0A0E036E0EEC0BF00150300FEC
:10127400DF6E0B50D96EDA6A020ED926DF6A1200CD
:10128400630E536448EF09F04AEF09F06CEF09F07C
:10129400000E0D6E000E0C6E0C500A0F33EC08F0AD
:1012A400046E0C50B2EC08F00C4A0D2A0DBE64EF2B
:1012B40009F00D5009E15A0E0C5CD8A064EF09F056
:1012C40066EF09F04EEF09F05A0E536E000E426EAF
:1012D400090E416EC6EC0BF0414A422A120087EF18
:1012E40009F002C0F6FF03C0F7FFF86A050EF764C1
:1012F40003D00800F55005D0F6CFE1FFF7CFE2FFA9
:10130400E750EEEC07F0024A032A02C0F6FF03C0DE
:10131400F7FFF86A050EF76403D00800F55005D00E
:10132400F6CFE1FFF7CFE2FFE7500009D8A49DEF25
:1013340009F09FEF09F073EF09F01200EF2FF22F7D
:10134400EC2FE02FE32FE62FE92FF52F010001000A
:101354000100010001000100564945575F4C4F4709
:10136400000000000000000000434C4541525F4C67
:101374004F470000000000000000444F574E5F4CF0
:101384004F470000000000000000005345545F5424
:10139400494D45000000000000000000000E016EF1
:1013A400055077EC08F0EDEF09F0010E016E03C073
:1013B400F6FF04C0F7FFF86A050EF76403D00800CF
:1013C400F55005D0F6CFE1FFF7CFE2FFE75077EC19
:1013D40008F0034A042A03C0F6FF04C0F7FFF86AC2
:1013E400050EF76403D00800F55005D0F6CFE1FFF1
:1013F400F7CFE2FFE7500009D8A403EF0AF005EFA6
:101404000AF0D7EF09F01200400EF66E130EF76ED5
:10141400000EF86E00EE60F010EE60F00900F5CFFB
:10142400EEFFE550E150FAE1000EF66E300EF76E75
:10143400000EF86E0900F5CF5EF002EE00F0640EC7
:10144400EE6AE806FDE101EE00F0AA0EEE6AE80697
:10145400FDE100EEC0F02A0EEE6AE806FDE100EEC2
:1014640034F02A0EEE6AE806FDE1000EF86E000183
:1014740028EF0CF0016E0104D8A443EF0AF045EF05
:101484000AF068EF0AF00FEC0DF05A6E5A28D8B43F
:101494004EEF0AF050EF0AF05CEF0AF05E50D8B459
:1014A40056EF0AF058EF0AF05CEF0AF05E6A5A5001
:1014B40075EF0AF05A28D8A462EF0AF064EF0AF034
:1014C40074EF0AF0010E5E6E74EF0AF00150D8A4B6
:1014D4006EEF0AF070EF0AF074EF0AF00FEC0DF003
:1014E40075EF0AF0FF0E1200020E48EC08F0346E9D
:1014F400010E48EC08F0356E000E48EC08F0366E2C
:1015040034AC87EF0AF089EF0AF095EF0AF034382B
:101514000F0B010B300F0001E16F34500F0B300F34
:10152400E26F9FEF0AF034380F0B030B300F00010A
:10153400E16F34500F0B300FE26F3A0EE36F353822
:101544000F0B0F0B300FE46F35500F0B300FE56F9F
:101554003A0EE66F36380F0B0F0B300FE76F36502D
:101564000F0B300FE86FE96B1200000E426E000E95
:10157400416E536A000E446E000E436E000E116EEF
:10158400000E106E200E046E5350B2EC08F0532A75
:10159400104A112A11BED8EF0AF0115009E1640E65
:1015A400105CD8A0D8EF0AF0DAEF0AF0C4EF0AF022
:1015B4001C0E036E2F0E046E800E056ED0EC09F027
:1015C4004F0E036E2F0E046EC00E056ED0EC09F0A4
:1015D400330E0F6EBB0E0E6EE00EE82EFED70E2EEF
:1015E400FCD70F2EFAD7000E4C6E0A0E4B6E000E6F
:1015F4000001DC6F000EDB6F536A42EC09F0000E51
:101604000001E06F000EDF6F010E546E000E016EDC
:10161400010E77EC08F01200066A02BE16EF0BF01A
:1016240014EF0BF01CEF0BF0016C021ED8B0022A71
:10163400010E066E04BE23EF0BF021EF0BF027EF33
:101644000BF0036C041ED8B0042A03500410D8B461
:101654002EEF0BF030EF0BF054EF0BF0010E056E94
:1016640038EF0BF0D89003360436052A04AE3DEF6C
:101674000BF03FEF0BF034EF0BF00350015C045020
:101684000258D8A048EF0BF04AEF0BF04EEF0BF0E6
:101694000350015E0450025AD89004320332052EDE
:1016A4003FEF0BF00650D8B45AEF0BF05CEF0BF0A1
:1016B40060EF0BF0016C021ED8B0022A01C001F0E9
:1016C40002C002F01200066A04BE6DEF0BF06BEF6D
:1016D4000BF073EF0BF0036C041ED8B0042A010E58
:1016E400066E02BE7AEF0BF078EF0BF080EF0BF092
:1016F400016C021ED8B0022A010E061A000E086EF2
:10170400000E076E03500410D8B48BEF0BF08DEF6E
:101714000BF0B5EF0BF0010E056E95EF0BF0D890C2
:1017240003360436052A04AE9AEF0BF09CEF0BF057
:1017340091EF0BF0D890073608360350015C045043
:101744000258D8A0A8EF0BF0AAEF0BF0AFEF0BF004
:101754000350015E0450025A0780D89004320332C9
:10176400052E9CEF0BF00650D8B4BBEF0BF0BDEF89
:101774000BF0C1EF0BF0076C081ED8B0082A07C0A5
:1017840001F008C002F01200000E0B6E000E0A6E8B
:101794000A50E10FD96EDA6A3A0EDE18D8B4D5EFE2
:1017A4000BF0D7EF0BF0E1EF0BF00A50E10FD96E1D
:1017B400DA6ADF50046E5350B2EC08F0532A0A4A36
:1017C4000B2A0BBEEFEF0BF00B5009E1080E0A5C7D
:1017D400D8A0EFEF0BF0F1EF0BF0CAEF0BF04F5086
:1017E400020DF350600FD96EDA6ADECFF6FFDDCF5B
:1017F400F7FF0800F5CF04F05350B2EC08F0532A79
:101804004F50020DF350600FD96EDA6ADECF08F044
:10181400DDCF09F0010E0826000E092208C0F6FFEC
:1018240009C0F7FF0800F5CF04F05350B2EC08F0FC
:10183400532A5BC004F05350B2EC08F0532A5CC046
:1018440004F05350B2EC08F0532A120094EC08F060
:10185400010E3CEC0AF0596E63EF0CF0C7EC11F08A
:101864002AEF0CF0D4EC10F02AEF0CF0E3EC0FF0BC
:101874000C0E5918D8A441EF0CF043EF0CF04CEFC8
:101884000CF0010E546E000E016E010E77EC08F0A0
:101894002AEF0CF05404D8A452EF0CF054EF0CF0DF
:1018A40088EF0CF0546A2AEF0CF0B7EC0AF02AEF38
:1018B4000CF093EC0DF02AEF0CF084EC14F02AEF0A
:1018C4000CF05450326E336A3350000AD8B46DEFC2
:1018D4000CF02AEF0CF03250000AD8B430EF0CF0C0
:1018E400010AD8B434EF0CF0030AD8B438EF0CF082
:1018F400010AD8B457EF0CF0070AD8B45BEF0CF028
:10190400010AD8B45FEF0CF02AEF0CF02AEF0CF0C8
:10191400FEEF17F02A342B34316E3150D8A495EFF2
:101924000CF097EF0CF0A1EF0CF0000E286E000EF7
:10193400296E000E2A6E000E2B6E0EEF0DF028C0DD
:101944002CF029C02DF02AC02EF02BC02FF0200E31
:10195400B1EF0CF0D8902F322E322D322C32E82EEB
:10196400ACEF0CF02C50306E2A8EFF0E2816FF0EB2
:101974002916FF0E2A16000E2B16960E315E31BE66
:10198400C8EF0CF0C6EF0CF0DEEF0CF03150800A1B
:10199400970FD8B0D0EF0CF0D2EF0CF0D4EF0CF0DE
:1019A40097EF0CF0D8902B322A3229322832313E6C
:1019B400D4EF0CF0F6EF0CF01F0E3164E4EF0CF0F2
:1019C400E6EF0CF0EEEF0CF097EF0CF0D890283621
:1019D40029362A362B3631063150D8A4F4EF0CF0D0
:1019E400F6EF0CF0E8EF0CF03050D8B4FCEF0CF04C
:1019F400FEEF0CF006EF0DF02B1E2A1E291E286C9C
:101A0400000E29222A222B2228C028F029C029F0DE
:101A14002AC02AF02BC02BF01200819A818C818E6F
:101A240081B217EF0DF019EF0DF01CEF0DF0010E60
:101A340092EF0DF081B421EF0DF023EF0DF026EFBE
:101A44000DF0040E92EF0DF081B62BEF0DF02DEF9B
:101A54000DF030EF0DF0070E92EF0DF081B835EF79
:101A64000DF037EF0DF03AEF0DF00A0E92EF0DF096
:101A7400818A819C818E81B242EF0DF044EF0DF09A
:101A840047EF0DF0020E92EF0DF081B44CEF0DF024
:101A94004EEF0DF051EF0DF0050E92EF0DF081B603
:101AA40056EF0DF058EF0DF05BEF0DF0080E92EFCE
:101AB4000DF081B860EF0DF062EF0DF065EF0DF001
:101AC4000B0E92EF0DF0818A818C819E819E81B2F2
:101AD4006EEF0DF070EF0DF073EF0DF0030E92EF5B
:101AE4000DF081B478EF0DF07AEF0DF07DEF0DF08D
:101AF400060E92EF0DF081B682EF0DF084EF0DF03B
:101B040087EF0DF0090E92EF0DF081B88CEF0DF018
:101B14008EEF0DF091EF0DF00C0E92EF0DF0FF0E25
:101B24001200000E4C6E0A0E4B6E42EC09F0536A22
:101B3400820E026E2F0E036E71EC09F0190E026E06
:101B44002F0E036E71EC09F041504210D8A4ADEF92
:101B54000DF0AFEF0DF0BEEF0DF0000E016E010EB3
:101B640077EC08F0C00E026E2F0E036E71EC09F0D4
:101B7400010E546E2BEF0EF04150300FEEEC07F0D7
:101B840006EC0FF0190E026E2F0E036E71EC09F0C5
:101B9400000E126E000E116EE9EF0DF0110E11021F
:101BA400F3CF0EF0F4CF0FF01202F3500F26000E15
:101BB4000E24026E010E0F20036E71EC09F0190E53
:101BC400026E2F0E036E71EC09F0114A122AFF0EF9
:101BD40041240E6EFF0E42200F6E0E50115C125007
:101BE400800A106E0F50800A1058D8A0FCEF0DF038
:101BF400FEEF0DF0D0EF0DF0FF0E026E2E0E036E11
:101C040071EC09F02D0E036E2F0E046E800E056E1E
:101C1400D0EC09F03E0E036E2F0E046EC00E056E5E
:101C2400D0EC09F0330E0F6EBB0E0E6EE00EE82EF4
:101C3400FED70E2EFCD70F2EFAD7000E0001E06F50
:101C4400000EDF6F010E546E000E016E010E77EC74
:101C540008F01200096E0950D8B433EF0EF035EFD6
:101C64000EF057EF0EF004BE3CEF0EF03AEF0EF01C
:101C740057EF0EF001C005F002C006F003C007F0F4
:101C840004C008F0051E061E071E081E052A000EC5
:101C940006220722082205C00BF006C00CF007C07C
:101CA4000DF008C00EF05FEF0EF001C00BF002C0A3
:101CB4000CF003C00DF004C00EF00150021003102C
:101CC4000410D8A468EF0EF06AEF0EF074EF0EF073
:101CD400000E016E000E026E000E036E000E046E06
:101CE40005EF0FF0960E0A6E7EEF0EF00A2AD890DA
:101CF4000E320D320C320B32000E0B14056E000E38
:101D04000C14066E000E0D14076EFE0E0E14086EF3
:101D14000550061007100810D8A493EF0EF095EFA5
:101D24000EF078EF0EF0A3EF0EF00A2A010E0B2648
:101D3400000E0C220D220E22D8900E320D320C32DF
:101D44000B32000E0B14056E000E0C14066E000E02
:101D54000D14076EFF0E0E14086E055006100710C2
:101D64000810D8A4B8EF0EF0BAEF0EF097EF0EF00B
:101D7400C2EF0EF00A06D8900B360C360D360E362E
:101D84000DBEC7EF0EF0C9EF0EF0D1EF0EF0020E4C
:101D94000A60CFEF0EF0D1EF0EF0BCEF0EF00AB0F8
:101DA400D6EF0EF0D8EF0EF0D9EF0EF00D9ED890CE
:101DB4000A320AC005F0066A076A086A05C008F014
:101DC400076A066A056A05500B1206500C12075082
:101DD4000D1208500E120950D8B4F3EF0EF0F5EFBF
:101DE4000EF0FDEF0EF004BEFCEF0EF0FAEF0EF075
:101DF400FDEF0EF00E8E0BC001F00CC002F00DC012
:101E040003F00EC004F01200086A000E0A6E000E01
:101E1400096ED3EF0FF0000E0C6E000E0B6E0D0E5C
:101E24000B180C10D8B419EF0FF01BEF0FF02EEFB6
:101E34000FF00A0E0B180C10D8B423EF0FF025EF97
:101E44000FF02EEF0FF00B040C10D8A42CEF0FF0B2
:101E54002EEF0FF047EF0FF0110E0902F3CF04F04D
:101E6400F4CF05F00A02F3500526000E0424066E92
:101E7400010E0520076E0B500624D96E0C50072066
:101E8400DA6E200EDF6EB1EF0FF00B500C10D8A4F9
:101E94004EEF0FF050EF0FF06AEF0FF0110E090242
:101EA400F3CF04F0F4CF05F00A02F3500526000E38
:101EB4000424066E010E0520076E0B500624D96E0D
:101EC4000C500720DA6E0950300FDF6EB1EF0FF0BF
:101ED400040E0B180C10D8B472EF0FF074EF0FF05F
:101EE4007EEF0FF0070E0B180C10D8A47CEF0FF048
:101EF4007EEF0FF097EF0FF0110E0902F3CF04F00D
:101F0400F4CF05F00A02F3500526000E0424066EF1
:101F1400010E0520076E0B500624D96E0C500720C5
:101F2400DA6E3A0EDF6EB1EF0FF0110E0902F3CF45
:101F340004F0F4CF05F00A02F3500526000E042441
:101F4400066E010E0520076E0B500624D96E0C5048
:101F54000720DA6E085033EC08F0DF6E082A0B4ACB
:101F64000C2A0CBEBFEF0FF00C5009E1100E0B5CF5
:101F7400D8A0BFEF0FF0C1EF0FF011EF0FF0110E6B
:101F84000902F3CF04F0F4CF05F00A02F35005265A
:101F9400100E0424D96E010E0520DA6EDF6A094A98
:101FA4000A2A4150095C0A50800A046E4250800A91
:101FB4000458D8A0E0EF0FF0E2EF0FF00DEF0FF0B0
:101FC400120042BEF0EF0FF0425006E14104D8B0D7
:101FD400EEEF0FF0F0EF0FF00FEF10F0030E0F6EB7
:101FE400E80E0E6EFEEF0FF0600E036E2F0E046E01
:101FF400800E056ED0EC09F00E06D8A00F060E2850
:1020040006E10F28D8A409EF10F00BEF10F0F6EF5B
:102014000FF0010E546ED3EF10F0930E036E2F0EDB
:10202400046E800E056ED0EC09F0C00E096E4350AC
:10203400300FFAEC07F0C20E096E375033EC08F09B
:10204400FAEC07F0C30E096E372833EC08F0FAEC0B
:1020540007F0C40E096E3A0EFAEC07F0C50E096ECD
:102064003750020F33EC08F0FAEC07F0C60E096E95
:102074003750030F33EC08F0FAEC07F0C70E096E83
:102084003A0EFAEC07F0C80E096E3750040F33EC21
:1020940008F0FAEC07F0C90E096E3750050F33EC5F
:1020A40008F0FAEC07F0CA0E096E200EFAEC07F0FD
:1020B400CB0E096E3750060F33EC08F0FAEC07F03C
:1020C400CC0E096E3750070F33EC08F0FAEC07F02A
:1020D400CD0E096E200EFAEC07F0CE0E096E3750C5
:1020E400080F33EC08F0FAEC07F0CF0E096E375006
:1020F400090F33EC08F0FAEC07F05904D8A485EF83
:1021040010F087EF10F09DEF10F038BE92EF10F052
:10211400385008E13704D8A092EF10F094EF10F093
:102124009DEF10F0F60E3726FF0E38224306D8A096
:102134004406D3EF10F0020E5918D8A4A4EF10F0FF
:10214400A6EF10F0C3EF10F0F60E53240B6E0C6ADA
:10215400FF0E0C220B50375C3850800A0D6E0C5069
:10216400800A0D58D8B0B9EF10F0BBEF10F0C3EFF0
:1021740010F00A0E3726000E3822434A442AD3EFC1
:1021840010F00C0E5918D8A4CAEF10F0CCEF10F0D0
:10219400D3EF10F0010E546E000E016E010E77ECB9
:1021A40008F012004750110DF3507C0F066E06C064
:1021B40003F0046A820E056ED0EC09F04750110D4D
:1021C400F3508D0F066E06C003F0046AC20E056E4E
:1021D400D0EC09F045504610D8A4F3EF10F0F5EF19
:1021E40010F00BEF11F0F80E036E2F0E046E800E3C
:1021F400056ED0EC09F02B0E036E2F0E046EC00E8C
:10220400056ED0EC09F047C049F048C04AF021EF10
:1022140011F02B0E036E2F0E046E800E056ED0ECA3
:1022240009F0F80E036E2F0E046EC00E056ED0EC8E
:1022340009F0010E4724496E000E48204A6E5904E5
:10224400D8A427EF11F029EF11F058EF11F045044D
:102254004610D8A430EF11F032EF11F038EF11F03E
:10226400000E466E000E456EA3EF11F048BE43EF1C
:1022740011F0485008E14704D8A043EF11F045EFAE
:1022840011F0A3EF11F048BE53EF11F0485007E1ED
:10229400030E475CD8B051EF11F053EF11F0A3EFE8
:1022A40011F04706D8A04806A3EF11F0020E591802
:1022B400D8A45FEF11F061EF11F089EF11F04550F0
:1022C4004610D8A468EF11F06AEF11F070EF11F026
:1022D400000E466E010E456EA3EF11F048BE7EEF70
:1022E40011F0485007E1020E475CD8B07CEF11F0C2
:1022F4007EEF11F0A3EF11F048BE83EF11F085EFEC
:1023040011F0A3EF11F0474A482AA3EF11F00C0E85
:102314005918D8A490EF11F092EF11F0A3EF11F037
:10232400000E0001E06F000EDF6F546A000E016EB4
:10233400010E77EC08F0000E486E000E476E32EF87
:1023440011F00B0E5918D8A4AAEF11F0ACEF11F04C
:10235400C6EF11F047504524020F546E020E541874
:10236400D8A4B7EF11F0B9EF11F0C1EF11F0000EDE
:10237400386E000E376E000E446E000E436E000E73
:10238400016E010E77EC08F01200710E036E2F0E31
:10239400046E800E056ED0EC09F076EC0AF0040EA3
:1023A400D2EC08F001C051F002C052F0140E136ECA
:1023B400AE0E146E230E156E410E166E51C001F052
:1023C40052C002F0036A046A000E2CEC0EF001C045
:1023D4000FF002C010F003C011F004C012F0BCEC06
:1023E40012F00FC028F010C029F011C02AF012C05A
:1023F4002BF08CEC0CF028C04DF029C04EF04EBEF2
:102404000DEF12F04E5009E1640E4D5CD8A00DEFB3
:1024140012F00FEF12F013EF12F0000E4E6E630E77
:102424004D6EE10E036E046AC00E056ED0EC09F029
:102434005904D8A420EF12F022EF12F034EF12F076
:10244400070E4F185010D8B42AEF12F02CEF12F0E8
:102454008EEF12F0000E506E070E4F6E42EC09F034
:102464008EEF12F0020E5918D8A43BEF12F03DEF94
:1024740012F064EF12F0070E4F185010D8A445EF75
:1024840012F047EF12F04BEF12F0000E506E000EF8
:102494004F6E50BE50EF12F052EF12F08EEF12F06A
:1024A40050BE60EF12F0505007E1060E4F5CD8B0FA
:1024B4005EEF12F060EF12F08EEF12F04F4A502AE6
:1024C40030EF12F0030E5918D8A46BEF12F06DEF31
:1024D40012F08EEF12F0070E4F185010D8A475EFBB
:1024E40012F077EF12F07BEF12F0000E506E020E36
:1024F4004F6E50BE87EF12F0505009E1020E4F5C50
:10250400D8A087EF12F089EF12F08EEF12F04F0689
:10251400D8A0500630EF12F04F50020DF350600F68
:10252400D96EDA6ADECF03F0DDCF04F0CA0E056E91
:10253400D0EC09F04DC009F04EC00AF05B0E0B6EF2
:1025440019EC09F05B0E036E046ACE0E056ED0EC36
:1025540009F00B0E5918D8A4B2EF12F0B4EF12F030
:10256400BBEF12F0010E546E000E016E010E77ECFB
:1025740008F012001250800B1F6E12501224266EA7
:1025840011AEC7EF12F0C9EF12F0CAEF12F02680B5
:102594002650D8B4D0EF12F0D2EF12F0E6EF12F0DA
:1025A4002628D8A4D8EF12F0DAEF12F0E2EF12F0F6
:1025B400000E0F6E000E106E000E116E000E126EE5
:1025C400118E126AEEEF12F0000E0F6E000E106EF6
:1025D400000E116E000E126E1650800B1F1A16504C
:1025E4001624276E15AEF9EF12F0FBEF12F0FCEF94
:1025F40012F027802750D8B402EF13F004EF13F041
:1026040018EF13F02728D8A40AEF13F00CEF13F0F7
:1026140014EF13F0000E136E000E146E000E156E00
:10262400000E166E158E166A20EF13F0000E136E50
:10263400000E146E000E156E000E166E135014105C
:1026440015101610D8A429EF13F02BEF13F043EF55
:1026540013F0000E0F6E000E106E000E116E000EC1
:10266400126E800E11127F0E12121F5012120FC022
:102674000FF010C010F011C011F012C012F083EF6F
:1026840014F02650D8A449EF13F04BEF13F055EF94
:1026940013F0000E0F6E000E106E000E116E000E81
:1026A400126E83EF14F0275026C017F0186A175ED5
:1026B400000E185A7F0E1724206E000E1820216E6B
:1026C4000FC01BF010C01CF011C01DF012C01EF092
:1026D400000E0F6E000E106E000E116E000E126EC4
:1026E400000E226E000E236E000E246E000E256E68
:1026F400276AB5EF13F02750D8B483EF13F085EFB2
:1027040013F09CEF13F0D8901B361C361D361E3682
:10271400D8900F3610361136123625AE94EF13F0DA
:1027240096EF13F097EF13F00F80D89022362336EC
:102734002436253613501B5C14501C5815501D5854
:1027440016501E58D8A0A9EF13F0ABEF13F0B4EF56
:1027540013F0258C13501B5E14501C5A15501D5A2F
:1027640016501E5A272A190E2764BBEF13F0BDEF2B
:1027740013F07DEF13F01B501C101D101E10D8B465
:10278400C6EF13F0C8EF13F0E0EF13F02280E0EF90
:1027940013F0D8900F3610361136123625AED5EF19
:1027A40013F0D7EF13F0D8EF13F00F80D890223640
:1027B4002336243625362006D8A0210611AEE5EFAF
:1027C40013F0E7EF13F0CBEF13F0276A25AEEDEF2C
:1027D40013F0EFEF13F013EF14F0FF0E2214176E43
:1027E400FF0E2314186EFF0E2414196E7F0E251489
:1027F4001A6E1750181019101A10D8B404EF14F0E8
:1028040006EF14F00AEF14F0010E276E13EF14F024
:102814000FA00FEF14F011EF14F013EF14F006EF04
:1028240014F02750D8B419EF14F01BEF14F03FEF55
:1028340014F0010E0F26000E10221122122212A0F3
:1028440026EF14F028EF14F03FEF14F00FC017F048
:1028540010C018F011C019F012C01AF01A341A324C
:1028640019321832173217C00FF018C010F019C0FF
:1028740011F01AC012F0204A212A21BE4AEF14F0A6
:10288400215008E12028D8A04AEF14F04CEF14F0AE
:1028940057EF14F0000E216E2068000E0F6E000E2C
:1028A400106E000E116E000E126E21BE64EF14F055
:1028B400215006E12004D8B062EF14F064EF14F064
:1028C40071EF14F0000E216E000E206E000E0F6EDC
:1028D400000E106E000E116E000E126E1F6A20C0E4
:1028E40026F026A078EF14F07AEF14F07DEF14F0C0
:1028F400118E7EEF14F0119ED8902630126E37EFB1
:1029040013F01200D70E036E2F0E046E830E056EA5
:10291400D0EC09F039503A10D8A493EF14F095EFA5
:1029240014F0ACEF14F00001E1510A0DF350E2256C
:10293400F00F576EE4510A0DF350E525F00F566E73
:10294400E7510A0DF350E825F00F556E000E3A6E6C
:10295400010E396E3D503E10D8A4B3EF14F0B5EF1C
:1029640014F02EEF15F0C70E096E56C001F0026A7E
:10297400000E046E0A0E036E0EEC0BF00150300FC5
:10298400FAEC07F0C60E096E56C001F0026A000E9A
:10299400046E0A0E036E65EC0BF00150300FFAEC76
:1029A40007F0C80E096E3A0EFAEC07F0CA0E096E6B
:1029B40055C001F0026A000E046E0A0E036E0EEC9E
:1029C4000BF00150300FFAEC07F0C90E096E55C038
:1029D40001F0026A000E046E0A0E036E65EC0BF041
:1029E4000150300FFAEC07F0C50E096E3A0EFAECFE
:1029F40007F03F504010D8B402EF15F004EF15F083
:102A040024EF15F0C40E096E57C001F0026A000EDF
:102A1400046E0A0E036E0EEC0BF00150300FFAEC4C
:102A240007F0C30E096E57C001F0026A000E046E6F
:102A34000A0E036E65EC0BF00150300FFAEC07F050
:102A440031EF16F02A0E036E2F0E046EC30E056EC0
:102A5400D0EC09F031EF16F03D043E10D8A435EF68
:102A640015F037EF15F0B0EF15F0C40E096E57C02E
:102A740001F0026A000E046E0A0E036E0EEC0BF0F7
:102A84000150300FFAEC07F0C30E096E57C001F085
:102A9400026A000E046E0A0E036E65EC0BF0015020
:102AA400300FFAEC07F0C50E096E3A0EFAEC07F097
:102AB400CA0E096E55C001F0026A000E046E0A0EB9
:102AC400036E0EEC0BF00150300FFAEC07F0C90E58
:102AD400096E55C001F0026A000E046E0A0E036E00
:102AE40065EC0BF00150300FFAEC07F0C80E096EDC
:102AF4003A0EFAEC07F03F504010D8B484EF15F0CA
:102B040086EF15F0A6EF15F0C70E096E56C001F05A
:102B1400026A000E046E0A0E036E0EEC0BF00150F6
:102B2400300FFAEC07F0C60E096E56C001F0026AC7
:102B3400000E046E0A0E036E65EC0BF00150300FAC
:102B4400FAEC07F031EF16F02A0E036E2F0E046E26
:102B5400C60E056ED0EC09F031EF16F0020E3D18EA
:102B64003E10D8A4B8EF15F0BAEF15F031EF16F017
:102B7400C40E096E57C001F0026A000E046E0A0EFC
:102B8400036E0EEC0BF00150300FFAEC07F0C30E9D
:102B9400096E57C001F0026A000E046E0A0E036E3D
:102BA40065EC0BF00150300FFAEC07F0C50E096E1E
:102BB4003A0EFAEC07F0C70E096E56C001F0026A2D
:102BC400000E046E0A0E036E0EEC0BF00150300F73
:102BD400FAEC07F0C60E096E56C001F0026A000E48
:102BE400046E0A0E036E65EC0BF00150300FFAEC24
:102BF40007F0C80E096E3A0EFAEC07F03F50401089
:102C0400D8B407EF16F009EF16F029EF16F0CA0E44
:102C1400096E55C001F0026A000E046E0A0E036EBE
:102C24000EEC0BF00150300FFAEC07F0C90E096EF0
:102C340055C001F0026A000E046E0A0E036E65ECC4
:102C44000BF00150300FFAEC07F031EF16F02A0EBA
:102C5400036E2F0E046EC90E056ED0EC09F0020E41
:102C64005918D8A438EF16F03AEF16F04CEF16F0D6
:102C7400010E3D24016E000E3E20026E000E046E15
:102C8400030E036E0EEC0BF001C03DF002C03EF0EB
:102C94006CEF17F05904D8A452EF16F054EF16F065
:102CA400A0EF16F03D503E10D8A45BEF16F05DEF98
:102CB40016F06DEF16F0010E5724016E026A000E35
:102CC4000222000E046E180E036E0EEC0BF001507F
:102CD400576E6CEF17F03D043E10D8A474EF16F055
:102CE40076EF16F086EF16F0010E5624016E026A96
:102CF400000E0222000E046E3C0E036E0EEC0BF06E
:102D04000150566E6CEF17F0020E3D183E10D8A419
:102D14008EEF16F090EF16F06CEF17F0010E5524BD
:102D2400016E026A000E0222000E046E3C0E036E57
:102D34000EEC0BF00150556E6CEF17F00B0E59189A
:102D4400D8A4A7EF16F0A9EF16F02FEF17F055C08F
:102D540001F0026A000E046E0A0E036E0EEC0BF014
:102D640001C00EF002C00FF055C001F0026A000E5F
:102D7400046E0A0E036E65EC0BF00138F00B0E10B6
:102D8400096E000E14EC08F056C001F0026A000E41
:102D9400046E0A0E036E0EEC0BF001C00EF002C0BE
:102DA4000FF056C001F0026A000E046E0A0E036EA4
:102DB40065EC0BF00138F00B0E10096E010E14ECEB
:102DC40008F057C001F0026A000E046E0A0E036E8A
:102DD4000EEC0BF001C00EF002C00FF057C001F072
:102DE400026A000E046E0A0E036E65EC0BF00138E5
:102DF400F00B0E10096E020E14EC08F0CC0E036EEC
:102E04002F0E046E830E056ED0EC09F0B30E036E24
:102E14002F0E046EC20E056ED0EC09F0330E0F6E49
:102E2400BB0E0E6EE00EE82EFED70E2EFCD70F2E34
:102E3400FAD7000E016E010E77EC08F0000E4C6E0E
:102E4400090E4B6E42EC09F0000E0001E06F000E1B
:102E5400DF6F010E546E6CEF17F00C0E5918D8A4E6
:102E640036EF17F038EF17F06CEF17F0000E016E25
:102E7400010E77EC08F0A40E036E2F0E046E810E83
:102E8400056ED0EC09F0B30E036E2F0E046EC20E65
:102E9400056ED0EC09F0330E0F6EBB0E0E6EE00E15
:102EA400E82EFED70E2EFCD70F2EFAD7000E4C6E4E
:102EB400090E4B6E42EC09F0000E0001E06F000EAB
:102EC400DF6F010E546E000E016E010E77EC08F0F8
:102ED4006CEF17F03B4A3C2A970E3B183C10D8A4E1
:102EE40076EF17F078EF17F07EEF17F0000E3C6ED8
:102EF400000E3B6E3F1E401E120000444F574E4CC6
:102F04004F41444544205355434345535346554C40
:102F14004C592E2E2E0A0D0020202020434C4541D2
:102F24004E2020202020202000202020444F574ED7
:102F34004C4F414445442020200020205355434316
:102F440045535346554C4C592020002020205355BE
:102F5400434345535346554C4C5920004E4F20454E
:102F640056454E5420464F554E4420210054494D59
:102F74004520202020202045562020535000232087
:102F840054494D45202020204556202053500023ED
:102F9400202054494D4520202020455620535000E0
:102FA40054494D45204E4F542053415645440053F7
:102FB40055434345535346554C4C59006E6F206559
:102FC40076656E74730A0D0054494D45205341567D
:102FD40045440048483A4D4D3A5353004731004761
:102FE4003200473300473400474E004F4E004752EB
:072FF40000435F002A00000A
:052FFC0006EF0AF001E0
:020000040020DA
:08000000FFFFFFFFFFFFFFFF00
:020000040030CA
:0E000000FF071F1FFF8285FF0FC00FE00F409C
:00000001FF
